{
  "contractName": "WeatherCrowdsale",
  "abi": [
    {
      "constant": true,
      "inputs": [],
      "name": "hasClosed",
      "outputs": [
        {
          "name": "",
          "type": "bool"
        }
      ],
      "payable": false,
      "stateMutability": "view",
      "type": "function"
    },
    {
      "constant": true,
      "inputs": [],
      "name": "rate",
      "outputs": [
        {
          "name": "",
          "type": "uint256"
        }
      ],
      "payable": false,
      "stateMutability": "view",
      "type": "function"
    },
    {
      "constant": true,
      "inputs": [],
      "name": "cap",
      "outputs": [
        {
          "name": "",
          "type": "uint256"
        }
      ],
      "payable": false,
      "stateMutability": "view",
      "type": "function"
    },
    {
      "constant": true,
      "inputs": [],
      "name": "weiRaised",
      "outputs": [
        {
          "name": "",
          "type": "uint256"
        }
      ],
      "payable": false,
      "stateMutability": "view",
      "type": "function"
    },
    {
      "constant": true,
      "inputs": [],
      "name": "closingTime",
      "outputs": [
        {
          "name": "",
          "type": "uint256"
        }
      ],
      "payable": false,
      "stateMutability": "view",
      "type": "function"
    },
    {
      "constant": true,
      "inputs": [],
      "name": "capReached",
      "outputs": [
        {
          "name": "",
          "type": "bool"
        }
      ],
      "payable": false,
      "stateMutability": "view",
      "type": "function"
    },
    {
      "constant": true,
      "inputs": [],
      "name": "wallet",
      "outputs": [
        {
          "name": "",
          "type": "address"
        }
      ],
      "payable": false,
      "stateMutability": "view",
      "type": "function"
    },
    {
      "constant": true,
      "inputs": [],
      "name": "openingTime",
      "outputs": [
        {
          "name": "",
          "type": "uint256"
        }
      ],
      "payable": false,
      "stateMutability": "view",
      "type": "function"
    },
    {
      "constant": false,
      "inputs": [
        {
          "name": "_beneficiary",
          "type": "address"
        }
      ],
      "name": "buyTokens",
      "outputs": [],
      "payable": true,
      "stateMutability": "payable",
      "type": "function"
    },
    {
      "constant": true,
      "inputs": [],
      "name": "token",
      "outputs": [
        {
          "name": "",
          "type": "address"
        }
      ],
      "payable": false,
      "stateMutability": "view",
      "type": "function"
    },
    {
      "inputs": [
        {
          "name": "_rate",
          "type": "uint256"
        },
        {
          "name": "_wallet",
          "type": "address"
        },
        {
          "name": "_token",
          "type": "address"
        },
        {
          "name": "_openingTime",
          "type": "uint256"
        },
        {
          "name": "_closingTime",
          "type": "uint256"
        },
        {
          "name": "_cap",
          "type": "uint256"
        }
      ],
      "payable": false,
      "stateMutability": "nonpayable",
      "type": "constructor"
    },
    {
      "payable": true,
      "stateMutability": "payable",
      "type": "fallback"
    },
    {
      "anonymous": false,
      "inputs": [
        {
          "indexed": true,
          "name": "purchaser",
          "type": "address"
        },
        {
          "indexed": true,
          "name": "beneficiary",
          "type": "address"
        },
        {
          "indexed": false,
          "name": "value",
          "type": "uint256"
        },
        {
          "indexed": false,
          "name": "amount",
          "type": "uint256"
        }
      ],
      "name": "TokenPurchase",
      "type": "event"
    }
  ],
  "bytecode": "0x608060405234801561001057600080fd5b5060405160c0806108fe83398101806040528101908080519060200190929190805190602001909291908051906020019092919080519060200190929190805190602001909291908051906020019092919050505080838388888860008311151561007a57600080fd5b600073ffffffffffffffffffffffffffffffffffffffff168273ffffffffffffffffffffffffffffffffffffffff16141515156100b657600080fd5b600073ffffffffffffffffffffffffffffffffffffffff168173ffffffffffffffffffffffffffffffffffffffff16141515156100f257600080fd5b8260028190555081600160006101000a81548173ffffffffffffffffffffffffffffffffffffffff021916908373ffffffffffffffffffffffffffffffffffffffff160217905550806000806101000a81548173ffffffffffffffffffffffffffffffffffffffff021916908373ffffffffffffffffffffffffffffffffffffffff16021790555050505042821015151561018c57600080fd5b81811015151561019b57600080fd5b816004819055508060058190555050506000811115156101ba57600080fd5b8060068190555050505050505050610727806101d76000396000f3006080604052600436106100a4576000357c0100000000000000000000000000000000000000000000000000000000900463ffffffff1680631515bc2b146100af5780632c4e722e146100de578063355274ea146101095780634042b66f146101345780634b6753bc1461015f5780634f9359451461018a578063521eb273146101b9578063b7a8807c14610210578063ec8ac4d81461023b578063fc0c546a14610271575b6100ad336102c8565b005b3480156100bb57600080fd5b506100c4610396565b604051808215151515815260200191505060405180910390f35b3480156100ea57600080fd5b506100f36103a2565b6040518082815260200191505060405180910390f35b34801561011557600080fd5b5061011e6103a8565b6040518082815260200191505060405180910390f35b34801561014057600080fd5b506101496103ae565b6040518082815260200191505060405180910390f35b34801561016b57600080fd5b506101746103b4565b6040518082815260200191505060405180910390f35b34801561019657600080fd5b5061019f6103ba565b604051808215151515815260200191505060405180910390f35b3480156101c557600080fd5b506101ce6103c9565b604051808273ffffffffffffffffffffffffffffffffffffffff1673ffffffffffffffffffffffffffffffffffffffff16815260200191505060405180910390f35b34801561021c57600080fd5b506102256103ef565b6040518082815260200191505060405180910390f35b61026f600480360381019080803573ffffffffffffffffffffffffffffffffffffffff1690602001909291905050506102c8565b005b34801561027d57600080fd5b506102866103f5565b604051808273ffffffffffffffffffffffffffffffffffffffff1673ffffffffffffffffffffffffffffffffffffffff16815260200191505060405180910390f35b6000803491506102d8838361041a565b6102e18261044d565b90506102f88260035461046b90919063ffffffff16565b6003819055506103088382610487565b8273ffffffffffffffffffffffffffffffffffffffff163373ffffffffffffffffffffffffffffffffffffffff167f623b3804fa71d67900d064613da8f94b9617215ee90799290593e1745087ad188484604051808381526020018281526020019250505060405180910390a361037f8383610495565b610387610499565b6103918383610504565b505050565b60006005544211905090565b60025481565b60065481565b60035481565b60055481565b60006006546003541015905090565b600160009054906101000a900473ffffffffffffffffffffffffffffffffffffffff1681565b60045481565b6000809054906101000a900473ffffffffffffffffffffffffffffffffffffffff1681565b6104248282610508565b60065461043c8260035461046b90919063ffffffff16565b1115151561044957600080fd5b5050565b60006104646002548361053590919063ffffffff16565b9050919050565b6000818301905082811015151561047e57fe5b80905092915050565b610491828261056d565b5050565b5050565b600160009054906101000a900473ffffffffffffffffffffffffffffffffffffffff1673ffffffffffffffffffffffffffffffffffffffff166108fc349081150290604051600060405180830381858888f19350505050158015610501573d6000803e3d6000fd5b50565b5050565b600454421015801561051c57506005544211155b151561052757600080fd5b61053182826105bd565b5050565b6000808314156105485760009050610567565b818302905081838281151561055957fe5b0414151561056357fe5b8090505b92915050565b6105b982826000809054906101000a900473ffffffffffffffffffffffffffffffffffffffff1673ffffffffffffffffffffffffffffffffffffffff1661060d9092919063ffffffff16565b5050565b600073ffffffffffffffffffffffffffffffffffffffff168273ffffffffffffffffffffffffffffffffffffffff16141515156105f957600080fd5b6000811415151561060957600080fd5b5050565b8273ffffffffffffffffffffffffffffffffffffffff1663a9059cbb83836040518363ffffffff167c0100000000000000000000000000000000000000000000000000000000028152600401808373ffffffffffffffffffffffffffffffffffffffff1673ffffffffffffffffffffffffffffffffffffffff16815260200182815260200192505050602060405180830381600087803b1580156106b057600080fd5b505af11580156106c4573d6000803e3d6000fd5b505050506040513d60208110156106da57600080fd5b810190808051906020019092919050505015156106f657600080fd5b5050505600a165627a7a72305820e5cdd4e9a6066dafecda5b362fd01bb75902b97ab8d4a10819d29111892175240029",
  "source": "pragma solidity 0.4.24;\r\n\r\nimport \"/openzeppelin-solidity/contracts/crowdsale/Crowdsale.sol\";\r\nimport \"/openzeppelin-solidity/contracts/crowdsale/validation/TimedCrowdsale.sol\";\r\nimport \"/openzeppelin-solidity/contracts/crowdsale/validation/CappedCrowdsale.sol\";\r\nimport \"/openzeppelin-solidity/contracts/crowdsale/emission/MintedCrowdsale.sol\";\r\nimport \"/openzeppelin-solidity/contracts/token/ERC20/ERC20.sol\";\r\n\r\ncontract WeatherCrowdsale is Crowdsale, TimedCrowdsale, CappedCrowdsale {\r\n    constructor(\r\n      uint256 _rate, \r\n      address _wallet, \r\n      ERC20 _token,\r\n      uint256 _openingTime, \r\n      uint256 _closingTime,\r\n      uint256 _cap\r\n    ) \r\n    \r\n    Crowdsale(_rate, _wallet, _token) \r\n    TimedCrowdsale(_openingTime, _closingTime)\r\n    CappedCrowdsale(_cap)\r\n\r\n    public {\r\n\r\n    }\r\n}\r\n",
  "sourcePath": "C:\\ivgit\\ico\\contracts\\WeatherCrowdsale.sol",
  "compiler": {
    "name": "solc",
    "version": "0.4.24+commit.e67f0147.Emscripten.clang"
  },
  "schemaVersion": "2.0.1",
  "updatedAt": "2018-09-04T21:08:23.254Z"
}